{
  "contractName": "MyToken",
  "abi": [
    {
      "inputs": [
        {
          "internalType": "string",
          "name": "name",
          "type": "string"
        },
        {
          "internalType": "string",
          "name": "symbol",
          "type": "string"
        }
      ],
      "stateMutability": "nonpayable",
      "type": "constructor"
    },
    {
      "anonymous": false,
      "inputs": [
        {
          "indexed": true,
          "internalType": "address",
          "name": "from",
          "type": "address"
        },
        {
          "indexed": true,
          "internalType": "uint256",
          "name": "tokenId",
          "type": "uint256"
        }
      ],
      "name": "TakeNFT",
      "type": "event"
    },
    {
      "anonymous": false,
      "inputs": [
        {
          "indexed": true,
          "internalType": "address",
          "name": "from",
          "type": "address"
        },
        {
          "indexed": true,
          "internalType": "address",
          "name": "to",
          "type": "address"
        },
        {
          "indexed": true,
          "internalType": "uint256",
          "name": "tokenId",
          "type": "uint256"
        }
      ],
      "name": "Transfer",
      "type": "event"
    },
    {
      "anonymous": false,
      "inputs": [
        {
          "indexed": true,
          "internalType": "uint256",
          "name": "tokenIdF",
          "type": "uint256"
        },
        {
          "indexed": true,
          "internalType": "uint256",
          "name": "tokenIdS",
          "type": "uint256"
        },
        {
          "indexed": true,
          "internalType": "address",
          "name": "to",
          "type": "address"
        }
      ],
      "name": "sendRewardNFTs",
      "type": "event"
    },
    {
      "inputs": [],
      "name": "_owner",
      "outputs": [
        {
          "internalType": "address",
          "name": "",
          "type": "address"
        }
      ],
      "stateMutability": "view",
      "type": "function",
      "constant": true
    },
    {
      "inputs": [
        {
          "internalType": "address",
          "name": "owner",
          "type": "address"
        }
      ],
      "name": "balanceOf",
      "outputs": [
        {
          "internalType": "uint256",
          "name": "",
          "type": "uint256"
        }
      ],
      "stateMutability": "view",
      "type": "function",
      "constant": true
    },
    {
      "inputs": [],
      "name": "name",
      "outputs": [
        {
          "internalType": "string",
          "name": "",
          "type": "string"
        }
      ],
      "stateMutability": "view",
      "type": "function",
      "constant": true
    },
    {
      "inputs": [
        {
          "internalType": "uint256",
          "name": "tokenId",
          "type": "uint256"
        }
      ],
      "name": "ownerOf",
      "outputs": [
        {
          "internalType": "address",
          "name": "",
          "type": "address"
        }
      ],
      "stateMutability": "view",
      "type": "function",
      "constant": true
    },
    {
      "inputs": [
        {
          "internalType": "address",
          "name": "",
          "type": "address"
        },
        {
          "internalType": "uint256",
          "name": "",
          "type": "uint256"
        }
      ],
      "name": "ownersOfNFTs",
      "outputs": [
        {
          "internalType": "uint256",
          "name": "",
          "type": "uint256"
        }
      ],
      "stateMutability": "view",
      "type": "function",
      "constant": true
    },
    {
      "inputs": [],
      "name": "symbol",
      "outputs": [
        {
          "internalType": "string",
          "name": "",
          "type": "string"
        }
      ],
      "stateMutability": "view",
      "type": "function",
      "constant": true
    },
    {
      "inputs": [],
      "name": "showNFTs",
      "outputs": [
        {
          "internalType": "uint256[]",
          "name": "",
          "type": "uint256[]"
        }
      ],
      "stateMutability": "view",
      "type": "function",
      "constant": true
    },
    {
      "inputs": [],
      "name": "isOwner",
      "outputs": [
        {
          "internalType": "bool",
          "name": "",
          "type": "bool"
        }
      ],
      "stateMutability": "view",
      "type": "function",
      "constant": true
    },
    {
      "inputs": [],
      "name": "showSaleNFTs",
      "outputs": [
        {
          "internalType": "uint256[]",
          "name": "",
          "type": "uint256[]"
        }
      ],
      "stateMutability": "view",
      "type": "function",
      "constant": true
    },
    {
      "inputs": [],
      "name": "mint",
      "outputs": [
        {
          "internalType": "uint256",
          "name": "",
          "type": "uint256"
        }
      ],
      "stateMutability": "nonpayable",
      "type": "function"
    },
    {
      "inputs": [
        {
          "internalType": "uint256",
          "name": "tokenId_",
          "type": "uint256"
        },
        {
          "internalType": "uint256",
          "name": "tokenPrice",
          "type": "uint256"
        }
      ],
      "name": "startSale",
      "outputs": [],
      "stateMutability": "nonpayable",
      "type": "function"
    },
    {
      "inputs": [
        {
          "internalType": "uint256",
          "name": "tokenId_",
          "type": "uint256"
        }
      ],
      "name": "finishSale",
      "outputs": [],
      "stateMutability": "payable",
      "type": "function",
      "payable": true
    },
    {
      "inputs": [
        {
          "internalType": "uint256",
          "name": "tokenId_",
          "type": "uint256"
        }
      ],
      "name": "cancelSale",
      "outputs": [],
      "stateMutability": "nonpayable",
      "type": "function"
    },
    {
      "inputs": [
        {
          "internalType": "address",
          "name": "to",
          "type": "address"
        },
        {
          "internalType": "uint256",
          "name": "tokenID",
          "type": "uint256"
        }
      ],
      "name": "transfer",
      "outputs": [],
      "stateMutability": "nonpayable",
      "type": "function"
    },
    {
      "inputs": [
        {
          "internalType": "uint256",
          "name": "tokenId_",
          "type": "uint256"
        }
      ],
      "name": "takeNFT",
      "outputs": [],
      "stateMutability": "payable",
      "type": "function",
      "payable": true
    },
    {
      "inputs": [
        {
          "internalType": "uint256",
          "name": "tokenIdF",
          "type": "uint256"
        },
        {
          "internalType": "uint256",
          "name": "tokenIdS",
          "type": "uint256"
        },
        {
          "internalType": "address",
          "name": "to",
          "type": "address"
        }
      ],
      "name": "sendNFTsToWinner",
      "outputs": [],
      "stateMutability": "nonpayable",
      "type": "function"
    }
  ],
  "bytecode": "0x60806040523480156200001157600080fd5b50604051620029f6380380620029f68339818101604052810190620000379190620001ef565b8181816000908051906020019062000051929190620000cd565b5080600190805190602001906200006a929190620000cd565b506200007b620000c560201b60201c565b600260006101000a81548173ffffffffffffffffffffffffffffffffffffffff021916908373ffffffffffffffffffffffffffffffffffffffff1602179055505050505062000393565b600033905090565b828054620000db90620002ff565b90600052602060002090601f016020900481019282620000ff57600085556200014b565b82601f106200011a57805160ff19168380011785556200014b565b828001600101855582156200014b579182015b828111156200014a5782518255916020019190600101906200012d565b5b5090506200015a91906200015e565b5090565b5b80821115620001795760008160009055506001016200015f565b5090565b6000620001946200018e8462000296565b62000262565b905082815260208101848484011115620001ad57600080fd5b620001ba848285620002c9565b509392505050565b600082601f830112620001d457600080fd5b8151620001e68482602086016200017d565b91505092915050565b600080604083850312156200020357600080fd5b600083015167ffffffffffffffff8111156200021e57600080fd5b6200022c85828601620001c2565b925050602083015167ffffffffffffffff8111156200024a57600080fd5b6200025885828601620001c2565b9150509250929050565b6000604051905081810181811067ffffffffffffffff821117156200028c576200028b62000364565b5b8060405250919050565b600067ffffffffffffffff821115620002b457620002b362000364565b5b601f19601f8301169050602081019050919050565b60005b83811015620002e9578082015181840152602081019050620002cc565b83811115620002f9576000848401525b50505050565b600060028204905060018216806200031857607f821691505b602082108114156200032f576200032e62000335565b5b50919050565b7f4e487b7100000000000000000000000000000000000000000000000000000000600052602260045260246000fd5b7f4e487b7100000000000000000000000000000000000000000000000000000000600052604160045260246000fd5b61265380620003a36000396000f3fe6080604052600436106100f35760003560e01c806395d89b411161008a578063bc8e886c11610059578063bc8e886c1461031f578063bd94b0051461034a578063f4f3122e14610373578063fb2facc31461039c576100f3565b806395d89b4114610277578063a9059cbb146102a2578063b2bdfa7b146102cb578063bbd8fcd5146102f6576100f3565b806370a08231116100c657806370a08231146101a75780637d19b58d146101e45780638f32d59b14610221578063900782aa1461024c576100f3565b806306fdde03146100f85780631249c58b146101235780632061a9521461014e5780636352211e1461016a575b600080fd5b34801561010457600080fd5b5061010d6103b8565b60405161011a919061222e565b60405180910390f35b34801561012f57600080fd5b5061013861044a565b6040516101459190612390565b60405180910390f35b61016860048036038101906101639190611cd3565b610484565b005b34801561017657600080fd5b50610191600480360381019061018c9190611cd3565b6107cc565b60405161019e91906121d6565b60405180910390f35b3480156101b357600080fd5b506101ce60048036038101906101c99190611c6e565b61087e565b6040516101db9190612390565b60405180910390f35b3480156101f057600080fd5b5061020b60048036038101906102069190611c97565b610936565b6040516102189190612390565b60405180910390f35b34801561022d57600080fd5b50610236610967565b6040516102439190612213565b60405180910390f35b34801561025857600080fd5b506102616109c6565b60405161026e91906121f1565b60405180910390f35b34801561028357600080fd5b5061028c610a62565b604051610299919061222e565b60405180910390f35b3480156102ae57600080fd5b506102c960048036038101906102c49190611c97565b610af4565b005b3480156102d757600080fd5b506102e0610b02565b6040516102ed91906121d6565b60405180910390f35b34801561030257600080fd5b5061031d60048036038101906103189190611d38565b610b28565b005b34801561032b57600080fd5b50610334610bcf565b60405161034191906121f1565b60405180910390f35b34801561035657600080fd5b50610371600480360381019061036c9190611cd3565b610c6b565b005b34801561037f57600080fd5b5061039a60048036038101906103959190611cfc565b610d74565b005b6103b660048036038101906103b19190611cd3565b610edc565b005b6060600080546103c790612505565b80601f01602080910402602001604051908101604052809291908181526020018280546103f390612505565b80156104405780601f1061041557610100808354040283529160200191610440565b820191906000526020600020905b81548152906001019060200180831161042357829003601f168201915b5050505050905090565b600061045833600654610faf565b6006600081548092919061046b90612537565b9190505550600160065461047f9190612456565b905090565b60086000828152602001908152602001600020546104a06111d7565b146104e0576040517f08c379a00000000000000000000000000000000000000000000000000000000081526004016104d790612370565b60405180910390fd5b6007600082815260200190815260200160002060009054906101000a900473ffffffffffffffffffffffffffffffffffffffff1673ffffffffffffffffffffffffffffffffffffffff166108fc6105356111d7565b9081150290604051600060405180830381858888f19350505050158015610560573d6000803e3d6000fd5b5060086000828152602001908152602001600020600090556007600082815260200190815260200160002060006101000a81549073ffffffffffffffffffffffffffffffffffffffff02191690556000600960006105bc6111df565b73ffffffffffffffffffffffffffffffffffffffff1673ffffffffffffffffffffffffffffffffffffffff16815260200190815260200160002080548060200260200160405190810160405280929190818152602001828054801561064057602002820191906000526020600020905b81548152602001906001019080831161062c575b505050505090506000805b600183516106599190612456565b8110156107535760065483828151811061069c577f4e487b7100000000000000000000000000000000000000000000000000000000600052603260045260246000fd5b602002602001015114156106af57600191505b8282826106bc9190612400565b815181106106f3577f4e487b7100000000000000000000000000000000000000000000000000000000600052603260045260246000fd5b6020026020010151838281518110610734577f4e487b7100000000000000000000000000000000000000000000000000000000600052603260045260246000fd5b602002602001018181525050808061074b90612537565b91505061064b565b506001825103825281600960006107686111df565b73ffffffffffffffffffffffffffffffffffffffff1673ffffffffffffffffffffffffffffffffffffffff16815260200190815260200160002090805190602001906107b5929190611bda565b506107c76107c16111df565b846111e7565b505050565b6000806003600084815260200190815260200160002060009054906101000a900473ffffffffffffffffffffffffffffffffffffffff169050600073ffffffffffffffffffffffffffffffffffffffff168173ffffffffffffffffffffffffffffffffffffffff161415610875576040517f08c379a000000000000000000000000000000000000000000000000000000000815260040161086c90612350565b60405180910390fd5b80915050919050565b60008073ffffffffffffffffffffffffffffffffffffffff168273ffffffffffffffffffffffffffffffffffffffff1614156108ef576040517f08c379a00000000000000000000000000000000000000000000000000000000081526004016108e6906122f0565b60405180910390fd5b600460008373ffffffffffffffffffffffffffffffffffffffff1673ffffffffffffffffffffffffffffffffffffffff168152602001908152602001600020549050919050565b6005602052816000526040600020818154811061095257600080fd5b90600052602060002001600091509150505481565b6000600260009054906101000a900473ffffffffffffffffffffffffffffffffffffffff1673ffffffffffffffffffffffffffffffffffffffff166109aa6111df565b73ffffffffffffffffffffffffffffffffffffffff1614905090565b6060600560006109d46111df565b73ffffffffffffffffffffffffffffffffffffffff1673ffffffffffffffffffffffffffffffffffffffff168152602001908152602001600020805480602002602001604051908101604052809291908181526020018280548015610a5857602002820191906000526020600020905b815481526020019060010190808311610a44575b5050505050905090565b606060018054610a7190612505565b80601f0160208091040260200160405190810160405280929190818152602001828054610a9d90612505565b8015610aea5780601f10610abf57610100808354040283529160200191610aea565b820191906000526020600020905b815481529060010190602001808311610acd57829003601f168201915b5050505050905090565b610afe82826112fa565b5050565b600260009054906101000a900473ffffffffffffffffffffffffffffffffffffffff1681565b610b306111df565b73ffffffffffffffffffffffffffffffffffffffff16600260009054906101000a900473ffffffffffffffffffffffffffffffffffffffff1673ffffffffffffffffffffffffffffffffffffffff1614610bbf576040517f08c379a0000000000000000000000000000000000000000000000000000000008152600401610bb690612250565b60405180910390fd5b610bca8383836115c3565b505050565b606060096000610bdd6111df565b73ffffffffffffffffffffffffffffffffffffffff1673ffffffffffffffffffffffffffffffffffffffff168152602001908152602001600020805480602002602001604051908101604052809291908181526020018280548015610c6157602002820191906000526020600020905b815481526020019060010190808311610c4d575b5050505050905090565b610c736111df565b73ffffffffffffffffffffffffffffffffffffffff166007600083815260200190815260200160002060009054906101000a900473ffffffffffffffffffffffffffffffffffffffff1673ffffffffffffffffffffffffffffffffffffffff1614610d13576040517f08c379a0000000000000000000000000000000000000000000000000000000008152600401610d0a906122b0565b60405180910390fd5b60086000828152602001908152602001600020600090556007600082815260200190815260200160002060006101000a81549073ffffffffffffffffffffffffffffffffffffffff0219169055610d71610d6b6111df565b826111e7565b50565b610d7c6111df565b73ffffffffffffffffffffffffffffffffffffffff16610d9b836107cc565b73ffffffffffffffffffffffffffffffffffffffff1614610df1576040517f08c379a0000000000000000000000000000000000000000000000000000000008152600401610de8906122b0565b60405180910390fd5b60096000610dfd6111df565b73ffffffffffffffffffffffffffffffffffffffff1673ffffffffffffffffffffffffffffffffffffffff168152602001908152602001600020829080600181540180825580915050600190039060005260206000200160009091909190915055610e666111df565b6007600084815260200190815260200160002060006101000a81548173ffffffffffffffffffffffffffffffffffffffff021916908373ffffffffffffffffffffffffffffffffffffffff160217905550806008600084815260200190815260200160002081905550610ed882611878565b5050565b610ee46111df565b73ffffffffffffffffffffffffffffffffffffffff16610f03826107cc565b73ffffffffffffffffffffffffffffffffffffffff1614610f59576040517f08c379a0000000000000000000000000000000000000000000000000000000008152600401610f50906122b0565b60405180910390fd5b67016345785d8a00003414610fa3576040517f08c379a0000000000000000000000000000000000000000000000000000000008152600401610f9a90612330565b60405180910390fd5b610fac81611878565b50565b600073ffffffffffffffffffffffffffffffffffffffff168273ffffffffffffffffffffffffffffffffffffffff16141561101f576040517f08c379a000000000000000000000000000000000000000000000000000000000815260040161101690612310565b60405180910390fd5b61102881611963565b15611068576040517f08c379a000000000000000000000000000000000000000000000000000000000815260040161105f90612290565b60405180910390fd5b6001600460008473ffffffffffffffffffffffffffffffffffffffff1673ffffffffffffffffffffffffffffffffffffffff16815260200190815260200160002060008282546110b89190612400565b92505081905550816003600083815260200190815260200160002060006101000a81548173ffffffffffffffffffffffffffffffffffffffff021916908373ffffffffffffffffffffffffffffffffffffffff160217905550600560008373ffffffffffffffffffffffffffffffffffffffff1673ffffffffffffffffffffffffffffffffffffffff168152602001908152602001600020819080600181540180825580915050600190039060005260206000200160009091909190915055808273ffffffffffffffffffffffffffffffffffffffff16600073ffffffffffffffffffffffffffffffffffffffff167fddf252ad1be2c89b69c2b068fc378daa952ba7f163c4a11628f55a4df523b3ef60405160405180910390a45050565b600034905090565b600033905090565b6001600460008473ffffffffffffffffffffffffffffffffffffffff1673ffffffffffffffffffffffffffffffffffffffff16815260200190815260200160002060008282546112379190612400565b92505081905550816003600083815260200190815260200160002060006101000a81548173ffffffffffffffffffffffffffffffffffffffff021916908373ffffffffffffffffffffffffffffffffffffffff160217905550600560008373ffffffffffffffffffffffffffffffffffffffff1673ffffffffffffffffffffffffffffffffffffffff1681526020019081526020016000208190806001815401808255809150506001900390600052602060002001600090919091909150555050565b6113026111df565b73ffffffffffffffffffffffffffffffffffffffff16611321826107cc565b73ffffffffffffffffffffffffffffffffffffffff1614611377576040517f08c379a000000000000000000000000000000000000000000000000000000000815260040161136e90612270565b60405180910390fd5b600073ffffffffffffffffffffffffffffffffffffffff168273ffffffffffffffffffffffffffffffffffffffff1614156113e7576040517f08c379a00000000000000000000000000000000000000000000000000000000081526004016113de906122d0565b60405180910390fd5b6001600460006113f56111df565b73ffffffffffffffffffffffffffffffffffffffff1673ffffffffffffffffffffffffffffffffffffffff168152602001908152602001600020600082825461143e9190612456565b9250508190555061144e816119cf565b6001600460008473ffffffffffffffffffffffffffffffffffffffff1673ffffffffffffffffffffffffffffffffffffffff168152602001908152602001600020600082825461149e9190612400565b92505081905550816003600083815260200190815260200160002060006101000a81548173ffffffffffffffffffffffffffffffffffffffff021916908373ffffffffffffffffffffffffffffffffffffffff160217905550600560008373ffffffffffffffffffffffffffffffffffffffff1673ffffffffffffffffffffffffffffffffffffffff168152602001908152602001600020819080600181540180825580915050600190039060005260206000200160009091909190915055808273ffffffffffffffffffffffffffffffffffffffff1661157d6111df565b73ffffffffffffffffffffffffffffffffffffffff167fddf252ad1be2c89b69c2b068fc378daa952ba7f163c4a11628f55a4df523b3ef60405160405180910390a45050565b6002600460008373ffffffffffffffffffffffffffffffffffffffff1673ffffffffffffffffffffffffffffffffffffffff16815260200190815260200160002060008282546116139190612400565b92505081905550806003600085815260200190815260200160002060006101000a81548173ffffffffffffffffffffffffffffffffffffffff021916908373ffffffffffffffffffffffffffffffffffffffff160217905550806003600084815260200190815260200160002060006101000a81548173ffffffffffffffffffffffffffffffffffffffff021916908373ffffffffffffffffffffffffffffffffffffffff160217905550600560008273ffffffffffffffffffffffffffffffffffffffff1673ffffffffffffffffffffffffffffffffffffffff168152602001908152602001600020839080600181540180825580915050600190039060005260206000200160009091909190915055600560008273ffffffffffffffffffffffffffffffffffffffff1673ffffffffffffffffffffffffffffffffffffffff1681526020019081526020016000208290806001815401808255809150506001900390600052602060002001600090919091909150558073ffffffffffffffffffffffffffffffffffffffff166108fc6702a303fe4b5300009081150290604051600060405180830381858888f193505050501580156117d8573d6000803e3d6000fd5b506117e16111df565b73ffffffffffffffffffffffffffffffffffffffff166108fc662386f26fc100009081150290604051600060405180830381858888f1935050505015801561182d573d6000803e3d6000fd5b508073ffffffffffffffffffffffffffffffffffffffff1682847f0ba0cfb16c432deb0d524dfd1c8030947fda100c539ee468567a66dc9f358a4760405160405180910390a4505050565b6003600082815260200190815260200160002060006101000a81549073ffffffffffffffffffffffffffffffffffffffff02191690556001600460006118bc6111df565b73ffffffffffffffffffffffffffffffffffffffff1673ffffffffffffffffffffffffffffffffffffffff16815260200190815260200160002060008282546119059190612456565b92505081905550611915816119cf565b8061191e6111df565b73ffffffffffffffffffffffffffffffffffffffff167f6b7cd69b67e1df4ae90a622a317601f488590b87285c2945fdda398d2942577760405160405180910390a350565b60008073ffffffffffffffffffffffffffffffffffffffff166003600084815260200190815260200160002060009054906101000a900473ffffffffffffffffffffffffffffffffffffffff1673ffffffffffffffffffffffffffffffffffffffff1614159050919050565b6000600560006119dd6111df565b73ffffffffffffffffffffffffffffffffffffffff1673ffffffffffffffffffffffffffffffffffffffff168152602001908152602001600020805480602002602001604051908101604052809291908181526020018280548015611a6157602002820191906000526020600020905b815481526020019060010190808311611a4d575b505050505090506000805b60018351611a7a9190612456565b811015611b725783838281518110611abb577f4e487b7100000000000000000000000000000000000000000000000000000000600052603260045260246000fd5b60200260200101511415611ace57600191505b828282611adb9190612400565b81518110611b12577f4e487b7100000000000000000000000000000000000000000000000000000000600052603260045260246000fd5b6020026020010151838281518110611b53577f4e487b7100000000000000000000000000000000000000000000000000000000600052603260045260246000fd5b6020026020010181815250508080611b6a90612537565b915050611a6c565b50600182510382528160056000611b876111df565b73ffffffffffffffffffffffffffffffffffffffff1673ffffffffffffffffffffffffffffffffffffffff1681526020019081526020016000209080519060200190611bd4929190611bda565b50505050565b828054828255906000526020600020908101928215611c16579160200282015b82811115611c15578251825591602001919060010190611bfa565b5b509050611c239190611c27565b5090565b5b80821115611c40576000816000905550600101611c28565b5090565b600081359050611c53816125ef565b92915050565b600081359050611c6881612606565b92915050565b600060208284031215611c8057600080fd5b6000611c8e84828501611c44565b91505092915050565b60008060408385031215611caa57600080fd5b6000611cb885828601611c44565b9250506020611cc985828601611c59565b9150509250929050565b600060208284031215611ce557600080fd5b6000611cf384828501611c59565b91505092915050565b60008060408385031215611d0f57600080fd5b6000611d1d85828601611c59565b9250506020611d2e85828601611c59565b9150509250929050565b600080600060608486031215611d4d57600080fd5b6000611d5b86828701611c59565b9350506020611d6c86828701611c59565b9250506040611d7d86828701611c44565b9150509250925092565b6000611d9383836121b8565b60208301905092915050565b611da88161248a565b82525050565b6000611db9826123bb565b611dc381856123de565b9350611dce836123ab565b8060005b83811015611dff578151611de68882611d87565b9750611df1836123d1565b925050600181019050611dd2565b5085935050505092915050565b611e158161249c565b82525050565b6000611e26826123c6565b611e3081856123ef565b9350611e408185602086016124d2565b611e49816125de565b840191505092915050565b6000611e61602d836123ef565b91507f4552433732313a20596f7520617265206e6f7420746865206f776e6572206f6660008301527f2074686520636f6e7472616374000000000000000000000000000000000000006020830152604082019050919050565b6000611ec76025836123ef565b91507f4552433732313a207472616e736665722066726f6d20696e636f72726563742060008301527f6f776e65720000000000000000000000000000000000000000000000000000006020830152604082019050919050565b6000611f2d601c836123ef565b91507f4552433732313a20746f6b656e20616c7265616479206d696e746564000000006000830152602082019050919050565b6000611f6d602a836123ef565b91507f4552433732313a20596f7520617265206e6f7420746865206f776e6572206f6660008301527f2074686520746f6b656e000000000000000000000000000000000000000000006020830152604082019050919050565b6000611fd36024836123ef565b91507f4552433732313a207472616e7366657220746f20746865207a65726f2061646460008301527f72657373000000000000000000000000000000000000000000000000000000006020830152604082019050919050565b60006120396029836123ef565b91507f4552433732313a2061646472657373207a65726f206973206e6f74206120766160008301527f6c6964206f776e657200000000000000000000000000000000000000000000006020830152604082019050919050565b600061209f6020836123ef565b91507f4552433732313a206d696e7420746f20746865207a65726f20616464726573736000830152602082019050919050565b60006120df602d836123ef565b91507f596f75206d75737420706179203130303030303030303030303030303030302060008301527f77656920746f20617474656e64000000000000000000000000000000000000006020830152604082019050919050565b60006121456018836123ef565b91507f4552433732313a20696e76616c696420746f6b656e20494400000000000000006000830152602082019050919050565b6000612185600f836123ef565b91507f416d6f756e742069732077726f6e6700000000000000000000000000000000006000830152602082019050919050565b6121c1816124c8565b82525050565b6121d0816124c8565b82525050565b60006020820190506121eb6000830184611d9f565b92915050565b6000602082019050818103600083015261220b8184611dae565b905092915050565b60006020820190506122286000830184611e0c565b92915050565b600060208201905081810360008301526122488184611e1b565b905092915050565b6000602082019050818103600083015261226981611e54565b9050919050565b6000602082019050818103600083015261228981611eba565b9050919050565b600060208201905081810360008301526122a981611f20565b9050919050565b600060208201905081810360008301526122c981611f60565b9050919050565b600060208201905081810360008301526122e981611fc6565b9050919050565b600060208201905081810360008301526123098161202c565b9050919050565b6000602082019050818103600083015261232981612092565b9050919050565b60006020820190508181036000830152612349816120d2565b9050919050565b6000602082019050818103600083015261236981612138565b9050919050565b6000602082019050818103600083015261238981612178565b9050919050565b60006020820190506123a560008301846121c7565b92915050565b6000819050602082019050919050565b600081519050919050565b600081519050919050565b6000602082019050919050565b600082825260208201905092915050565b600082825260208201905092915050565b600061240b826124c8565b9150612416836124c8565b9250827fffffffffffffffffffffffffffffffffffffffffffffffffffffffffffffffff0382111561244b5761244a612580565b5b828201905092915050565b6000612461826124c8565b915061246c836124c8565b92508282101561247f5761247e612580565b5b828203905092915050565b6000612495826124a8565b9050919050565b60008115159050919050565b600073ffffffffffffffffffffffffffffffffffffffff82169050919050565b6000819050919050565b60005b838110156124f05780820151818401526020810190506124d5565b838111156124ff576000848401525b50505050565b6000600282049050600182168061251d57607f821691505b60208210811415612531576125306125af565b5b50919050565b6000612542826124c8565b91507fffffffffffffffffffffffffffffffffffffffffffffffffffffffffffffffff82141561257557612574612580565b5b600182019050919050565b7f4e487b7100000000000000000000000000000000000000000000000000000000600052601160045260246000fd5b7f4e487b7100000000000000000000000000000000000000000000000000000000600052602260045260246000fd5b6000601f19601f8301169050919050565b6125f88161248a565b811461260357600080fd5b50565b61260f816124c8565b811461261a57600080fd5b5056fea2646970667358221220b9490866a17f8d83c951fe7b57dbb4087cf98f77bfa0181b04051c612f783f3664736f6c63430008000033",
  "immutableReferences": {},
  "source": "// SPDX-License-Identifier: non\npragma solidity ^0.8.0;\n\nimport \"./MyERC721.sol\";\n\ncontract MyToken is MyERC721 {\n    \n    // Unique token ids.\n    uint256 private tokenId;\n\n    // Token exOwners to authorize cancel from sale.\n    mapping(uint256 => address) tokensInSale;\n\n    // Token prices on sale.\n    mapping(uint256 => uint256) tokensPrice;\n\n    // User ownership of NFTs on sale, used to authorizations on app.\n    mapping(address => uint256[]) private ownersOfNFTsOnSale;\n\n\n    constructor(string memory name, string memory symbol) MyERC721(name, symbol) {  \n\n    }\n\n    // Returns ownerships of NFTs with view (gas free) function.\n    function showNFTs() public view returns(uint256[] memory){\n         return ownersOfNFTs[_msgSender()];\n    }\n\n    // Returns ownership of contract with wiew (gas free) function for authorization on app.\n    function isOwner() public view returns(bool ){\n        return _msgSender() == _owner;\n    }\n\n    // Returns ownerships of NFTs on sale with view (gas free) function.\n    function showSaleNFTs() public view returns(uint256[] memory){\n         return ownersOfNFTsOnSale[_msgSender()];\n    }\n\n    // Minting NFT.\n    function mint() public returns (uint256){\n        _mint(msg.sender, tokenId);\n        tokenId++;\n        return tokenId-1;\n    }\n\n    // Putting NFT to sale.\n    function startSale(uint256 tokenId_, uint256 tokenPrice) public {\n        require(MyERC721.ownerOf(tokenId_) == _msgSender(), \"ERC721: You are not the owner of the token\");\n        \n        ownersOfNFTsOnSale[_msgSender()].push(tokenId_);\n        tokensInSale[tokenId_] = _msgSender();\n        tokensPrice[tokenId_] = tokenPrice;\n\n        _takeNFT(tokenId_);\n    }    \n\n    // Buying NFT.\n    function finishSale(uint256 tokenId_) public payable{\n        require(_msgValue() == tokensPrice[tokenId_], \"Amount is wrong\");\n\n        payable(tokensInSale[tokenId_]).transfer(_msgValue());\n        delete tokensPrice[tokenId_];\n        delete tokensInSale[tokenId_];\n\n        uint256[] memory ownerAr = ownersOfNFTsOnSale[_msgSender()];\n\n        uint j = 0;\n        for (uint i = 0; i<ownerAr.length-1; i++){\n            if(ownerAr[i] == tokenId)\n                j = 1;\n            ownerAr[i] = ownerAr[i+j];\n        }\n\n        assembly { mstore(ownerAr, sub(mload(ownerAr), 1)) }\n        ownersOfNFTsOnSale[_msgSender()] = ownerAr;\n\n        _sendTokenTo(_msgSender(), tokenId_);\n    }\n\n    // Canceling from sale.\n    function cancelSale(uint256 tokenId_) public{\n        require(tokensInSale[tokenId_] == _msgSender(), \"ERC721: You are not the owner of the token\");\n        \n        delete tokensPrice[tokenId_];\n        delete tokensInSale[tokenId_];\n\n        _sendTokenTo(_msgSender(), tokenId_);\n    }\n\n    // Transfering NFT.\n    function transfer(address to, uint256 tokenID) public {\n\n        _transfer(to, tokenID);\n    }\n\n    // Taking NFT to NFT fight\n    function takeNFT(uint256 tokenId_) external payable { \n        require(MyERC721.ownerOf(tokenId_) == _msgSender(), \"ERC721: You are not the owner of the token\");\n        require(msg.value == 100000000000000000, \"You must pay 100000000000000000 wei to attend\");\n        \n        _takeNFT(tokenId_);\n    }\n \n    // Sending NFT fight rewards.\n    function sendNFTsToWinner(uint256 tokenIdF, uint256 tokenIdS, address to) public {\n        require(_owner == _msgSender(), \"ERC721: You are not the owner of the contract\");   \n        \n        _sendNFTsToWinner(tokenIdF, tokenIdS, to);\n    }\n}",
  "sourcePath": "/home/hp/truffleProject/contracts/MyToken.sol",
  "compiler": {
    "name": "solc",
    "version": "0.8.0+commit.c7dfd78e.Emscripten.clang"
  },
  "schemaVersion": "3.4.11",
  "updatedAt": "2022-12-21T09:45:16.632Z",
  "networkType": "ethereum",
  "devdoc": {
    "kind": "dev",
    "methods": {},
    "version": 1
  },
  "userdoc": {
    "kind": "user",
    "methods": {},
    "version": 1
  }
}