{
  "contractName": "MyERC721",
  "abi": [
    {
      "inputs": [
        {
          "internalType": "string",
          "name": "name_",
          "type": "string"
        },
        {
          "internalType": "string",
          "name": "symbol_",
          "type": "string"
        }
      ],
      "stateMutability": "nonpayable",
      "type": "constructor"
    },
    {
      "anonymous": false,
      "inputs": [
        {
          "indexed": true,
          "internalType": "address",
          "name": "from",
          "type": "address"
        },
        {
          "indexed": true,
          "internalType": "uint256",
          "name": "tokenId",
          "type": "uint256"
        }
      ],
      "name": "TakeNFT",
      "type": "event"
    },
    {
      "anonymous": false,
      "inputs": [
        {
          "indexed": true,
          "internalType": "address",
          "name": "from",
          "type": "address"
        },
        {
          "indexed": true,
          "internalType": "address",
          "name": "to",
          "type": "address"
        },
        {
          "indexed": true,
          "internalType": "uint256",
          "name": "tokenId",
          "type": "uint256"
        }
      ],
      "name": "Transfer",
      "type": "event"
    },
    {
      "anonymous": false,
      "inputs": [
        {
          "indexed": true,
          "internalType": "uint256",
          "name": "tokenIdF",
          "type": "uint256"
        },
        {
          "indexed": true,
          "internalType": "uint256",
          "name": "tokenIdS",
          "type": "uint256"
        },
        {
          "indexed": true,
          "internalType": "address",
          "name": "to",
          "type": "address"
        }
      ],
      "name": "sendRewardNFTs",
      "type": "event"
    },
    {
      "inputs": [],
      "name": "_owner",
      "outputs": [
        {
          "internalType": "address",
          "name": "",
          "type": "address"
        }
      ],
      "stateMutability": "view",
      "type": "function"
    },
    {
      "inputs": [
        {
          "internalType": "address",
          "name": "",
          "type": "address"
        },
        {
          "internalType": "uint256",
          "name": "",
          "type": "uint256"
        }
      ],
      "name": "ownersOfNFTs",
      "outputs": [
        {
          "internalType": "uint256",
          "name": "",
          "type": "uint256"
        }
      ],
      "stateMutability": "view",
      "type": "function"
    },
    {
      "inputs": [],
      "name": "name",
      "outputs": [
        {
          "internalType": "string",
          "name": "",
          "type": "string"
        }
      ],
      "stateMutability": "view",
      "type": "function"
    },
    {
      "inputs": [],
      "name": "symbol",
      "outputs": [
        {
          "internalType": "string",
          "name": "",
          "type": "string"
        }
      ],
      "stateMutability": "view",
      "type": "function"
    },
    {
      "inputs": [
        {
          "internalType": "address",
          "name": "owner",
          "type": "address"
        }
      ],
      "name": "balanceOf",
      "outputs": [
        {
          "internalType": "uint256",
          "name": "",
          "type": "uint256"
        }
      ],
      "stateMutability": "view",
      "type": "function"
    },
    {
      "inputs": [
        {
          "internalType": "uint256",
          "name": "tokenId",
          "type": "uint256"
        }
      ],
      "name": "ownerOf",
      "outputs": [
        {
          "internalType": "address",
          "name": "",
          "type": "address"
        }
      ],
      "stateMutability": "view",
      "type": "function"
    }
  ],
  "bytecode": "0x60806040523480156200001157600080fd5b5060405162000b8338038062000b838339818101604052810190620000379190620001eb565b81600090805190602001906200004f929190620000c9565b50806001908051906020019062000068929190620000c9565b5062000079620000c160201b60201c565b600260006101000a81548173ffffffffffffffffffffffffffffffffffffffff021916908373ffffffffffffffffffffffffffffffffffffffff16021790555050506200038f565b600033905090565b828054620000d790620002fb565b90600052602060002090601f016020900481019282620000fb576000855562000147565b82601f106200011657805160ff191683800117855562000147565b8280016001018555821562000147579182015b828111156200014657825182559160200191906001019062000129565b5b5090506200015691906200015a565b5090565b5b80821115620001755760008160009055506001016200015b565b5090565b6000620001906200018a8462000292565b6200025e565b905082815260208101848484011115620001a957600080fd5b620001b6848285620002c5565b509392505050565b600082601f830112620001d057600080fd5b8151620001e284826020860162000179565b91505092915050565b60008060408385031215620001ff57600080fd5b600083015167ffffffffffffffff8111156200021a57600080fd5b6200022885828601620001be565b925050602083015167ffffffffffffffff8111156200024657600080fd5b6200025485828601620001be565b9150509250929050565b6000604051905081810181811067ffffffffffffffff8211171562000288576200028762000360565b5b8060405250919050565b600067ffffffffffffffff821115620002b057620002af62000360565b5b601f19601f8301169050602081019050919050565b60005b83811015620002e5578082015181840152602081019050620002c8565b83811115620002f5576000848401525b50505050565b600060028204905060018216806200031457607f821691505b602082108114156200032b576200032a62000331565b5b50919050565b7f4e487b7100000000000000000000000000000000000000000000000000000000600052602260045260246000fd5b7f4e487b7100000000000000000000000000000000000000000000000000000000600052604160045260246000fd5b6107e4806200039f6000396000f3fe608060405234801561001057600080fd5b50600436106100625760003560e01c806306fdde03146100675780636352211e1461008557806370a08231146100b55780637d19b58d146100e557806395d89b4114610115578063b2bdfa7b14610133575b600080fd5b61006f610151565b60405161007c9190610606565b60405180910390f35b61009f600480360381019061009a91906104c5565b6101e3565b6040516100ac91906105eb565b60405180910390f35b6100cf60048036038101906100ca9190610460565b610295565b6040516100dc9190610668565b60405180910390f35b6100ff60048036038101906100fa9190610489565b61034d565b60405161010c9190610668565b60405180910390f35b61011d61037e565b60405161012a9190610606565b60405180910390f35b61013b610410565b60405161014891906105eb565b60405180910390f35b6060600080546101609061070e565b80601f016020809104026020016040519081016040528092919081815260200182805461018c9061070e565b80156101d95780601f106101ae576101008083540402835291602001916101d9565b820191906000526020600020905b8154815290600101906020018083116101bc57829003601f168201915b5050505050905090565b6000806003600084815260200190815260200160002060009054906101000a900473ffffffffffffffffffffffffffffffffffffffff169050600073ffffffffffffffffffffffffffffffffffffffff168173ffffffffffffffffffffffffffffffffffffffff16141561028c576040517f08c379a000000000000000000000000000000000000000000000000000000000815260040161028390610648565b60405180910390fd5b80915050919050565b60008073ffffffffffffffffffffffffffffffffffffffff168273ffffffffffffffffffffffffffffffffffffffff161415610306576040517f08c379a00000000000000000000000000000000000000000000000000000000081526004016102fd90610628565b60405180910390fd5b600460008373ffffffffffffffffffffffffffffffffffffffff1673ffffffffffffffffffffffffffffffffffffffff168152602001908152602001600020549050919050565b6005602052816000526040600020818154811061036957600080fd5b90600052602060002001600091509150505481565b60606001805461038d9061070e565b80601f01602080910402602001604051908101604052809291908181526020018280546103b99061070e565b80156104065780601f106103db57610100808354040283529160200191610406565b820191906000526020600020905b8154815290600101906020018083116103e957829003601f168201915b5050505050905090565b600260009054906101000a900473ffffffffffffffffffffffffffffffffffffffff1681565b60008135905061044581610780565b92915050565b60008135905061045a81610797565b92915050565b60006020828403121561047257600080fd5b600061048084828501610436565b91505092915050565b6000806040838503121561049c57600080fd5b60006104aa85828601610436565b92505060206104bb8582860161044b565b9150509250929050565b6000602082840312156104d757600080fd5b60006104e58482850161044b565b91505092915050565b6104f78161069f565b82525050565b600061050882610683565b610512818561068e565b93506105228185602086016106db565b61052b8161076f565b840191505092915050565b600061054360298361068e565b91507f4552433732313a2061646472657373207a65726f206973206e6f74206120766160008301527f6c6964206f776e657200000000000000000000000000000000000000000000006020830152604082019050919050565b60006105a960188361068e565b91507f4552433732313a20696e76616c696420746f6b656e20494400000000000000006000830152602082019050919050565b6105e5816106d1565b82525050565b600060208201905061060060008301846104ee565b92915050565b6000602082019050818103600083015261062081846104fd565b905092915050565b6000602082019050818103600083015261064181610536565b9050919050565b600060208201905081810360008301526106618161059c565b9050919050565b600060208201905061067d60008301846105dc565b92915050565b600081519050919050565b600082825260208201905092915050565b60006106aa826106b1565b9050919050565b600073ffffffffffffffffffffffffffffffffffffffff82169050919050565b6000819050919050565b60005b838110156106f95780820151818401526020810190506106de565b83811115610708576000848401525b50505050565b6000600282049050600182168061072657607f821691505b6020821081141561073a57610739610740565b5b50919050565b7f4e487b7100000000000000000000000000000000000000000000000000000000600052602260045260246000fd5b6000601f19601f8301169050919050565b6107898161069f565b811461079457600080fd5b50565b6107a0816106d1565b81146107ab57600080fd5b5056fea2646970667358221220d1355a08484e4ace2d1f458d433576b6c1ad1145f814b11984c7ddb40cc2c4a964736f6c63430008000033",
  "immutableReferences": {},
  "source": "// SPDX-License-Identifier: non\npragma solidity ^0.8.0;\n\n\nimport \"./IERC721Events.sol\";\nimport \"./utils/Context.sol\";\n\n\ncontract MyERC721 is IERC721Events, Context {\n\n    // Token name\n    string private _name;\n\n    // Token symbol\n    string private _symbol;\n\n    //owner of the deployed contract\n    address public _owner;\n\n    // Mapping from token ID to owner address\n    mapping(uint256 => address) private _owners;\n\n    // Mapping owner address to token count\n    mapping(address => uint256) private _balances;\n\n    // User ownership of NFTs, used to authorizations on app.\n    struct NFTFeatures {\n        uint256[] ids;\n        string[] names;\n        uint256[] powers;\n    }\n    mapping(address => uint256[]) public ownersOfNFTs;\n\n\n\n    constructor(string memory name_, string memory symbol_) {        \n        _name = name_;        \n        _symbol = symbol_;    \n        _owner = _msgSender();\n    }\n\n\n    function name() public view virtual  returns (string memory) {\n        return _name;\n    }\n\n\n    function symbol() public view virtual  returns (string memory) {\n        return _symbol;\n    }\n\n\n    function _removeFromOwnership(uint256 tokenId) internal virtual {\n        uint256[] memory ownerAr = ownersOfNFTs[_msgSender()];\n\n        uint j = 0;\n        for (uint i = 0; i<ownerAr.length-1; i++){\n            if(ownerAr[i] == tokenId)\n                j = 1;\n            ownerAr[i] = ownerAr[i+j];\n        }\n\n        assembly { mstore(ownerAr, sub(mload(ownerAr), 1)) }\n        ownersOfNFTs[_msgSender()] = ownerAr;\n    }\n\n\n    function balanceOf(address owner) public view virtual  returns (uint256) {\n        require(owner != address(0), \"ERC721: address zero is not a valid owner\");\n        return _balances[owner];\n    }\n\n\n    function ownerOf(uint256 tokenId) public view virtual returns (address) {\n        address owner = _owners[tokenId];\n\n        require(owner != address(0), \"ERC721: invalid token ID\");\n        return owner;\n    }\n\n\n    function _exists(uint256 tokenId) internal view virtual returns (bool) {\n        return _owners[tokenId] != address(0);\n    }\n\n\n    function _mint(address to, uint256 tokenId) internal virtual{\n        require(to != address(0), \"ERC721: mint to the zero address\");\n        require(!_exists(tokenId), \"ERC721: token already minted\");\n\n        _balances[to] += 1;\n        _owners[tokenId] = to;\n        NFTFeatures;\n        ownersOfNFTs[to].push(tokenId);\n\n        emit Transfer(address(0), to, tokenId);\n    } \n    \n\n    function _transfer(address to, uint256 tokenId) internal virtual {\n        require(MyERC721.ownerOf(tokenId) == _msgSender(), \"ERC721: transfer from incorrect owner\");\n        require(to != address(0), \"ERC721: transfer to the zero address\");\n\n        _balances[_msgSender()] -= 1;\n        _removeFromOwnership(tokenId);\n\n        _balances[to] += 1;\n        _owners[tokenId] = to;\n        ownersOfNFTs[to].push(tokenId);\n\n        emit Transfer(_msgSender(), to, tokenId);\n    }\n\n\n    function _takeNFT(uint256 tokenId) internal {\n        delete _owners[tokenId];\n        _balances[_msgSender()] -= 1;\n        _removeFromOwnership(tokenId);\n\n        emit TakeNFT(_msgSender(), tokenId);\n    }\n\n\n    //_sendNFTsToWinner function is to send nfts and amounts to winner.\n    //_sendNFTsToWinner function can only be called by contract owner.\n    function _sendNFTsToWinner(uint256 tokenIdF, uint256 tokenIdS, address to) internal {\n        _balances[to] += 2;\n        _owners[tokenIdF] = to;   \n        _owners[tokenIdS] = to;  \n        ownersOfNFTs[to].push(tokenIdF);\n        ownersOfNFTs[to].push(tokenIdS);\n\n        payable(to).transfer((100000000000000000)*19/10);  //This amount is sent to game winner.\n        payable(_msgSender()).transfer((100000000000000000)*1/10);  //This amount is sent to transaction owner.\n\n        emit sendRewardNFTs(tokenIdF, tokenIdS, to);\n    }\n\n\n    function _sendTokenTo(address to, uint256 tokenId_) internal {\n        _balances[to] += 1;\n        _owners[tokenId_] = to;   \n        ownersOfNFTs[to].push(tokenId_);\n    }\n\n}",
  "sourcePath": "/home/hp/truffleProject/contracts/MyERC721.sol",
  "compiler": {
    "name": "solc",
    "version": "0.8.0+commit.c7dfd78e.Emscripten.clang"
  },
  "schemaVersion": "3.4.11",
  "updatedAt": "2022-12-20T16:12:17.163Z",
  "devdoc": {
    "kind": "dev",
    "methods": {},
    "version": 1
  },
  "userdoc": {
    "kind": "user",
    "methods": {},
    "version": 1
  }
}