{
  "contractName": "MyToken",
  "abi": [
    {
      "inputs": [
        {
          "internalType": "string",
          "name": "name",
          "type": "string"
        },
        {
          "internalType": "string",
          "name": "symbol",
          "type": "string"
        }
      ],
      "stateMutability": "nonpayable",
      "type": "constructor"
    },
    {
      "anonymous": false,
      "inputs": [
        {
          "indexed": true,
          "internalType": "address",
          "name": "from",
          "type": "address"
        },
        {
          "indexed": true,
          "internalType": "uint256",
          "name": "tokenId",
          "type": "uint256"
        }
      ],
      "name": "TakeNFT",
      "type": "event"
    },
    {
      "anonymous": false,
      "inputs": [
        {
          "indexed": true,
          "internalType": "address",
          "name": "from",
          "type": "address"
        },
        {
          "indexed": true,
          "internalType": "address",
          "name": "to",
          "type": "address"
        },
        {
          "indexed": true,
          "internalType": "uint256",
          "name": "tokenId",
          "type": "uint256"
        }
      ],
      "name": "Transfer",
      "type": "event"
    },
    {
      "anonymous": false,
      "inputs": [
        {
          "indexed": true,
          "internalType": "uint256",
          "name": "tokenIdF",
          "type": "uint256"
        },
        {
          "indexed": true,
          "internalType": "uint256",
          "name": "tokenIdS",
          "type": "uint256"
        },
        {
          "indexed": true,
          "internalType": "address",
          "name": "to",
          "type": "address"
        }
      ],
      "name": "sendRewardNFTs",
      "type": "event"
    },
    {
      "inputs": [],
      "name": "_owner",
      "outputs": [
        {
          "internalType": "address",
          "name": "",
          "type": "address"
        }
      ],
      "stateMutability": "view",
      "type": "function",
      "constant": true
    },
    {
      "inputs": [
        {
          "internalType": "address",
          "name": "owner",
          "type": "address"
        }
      ],
      "name": "balanceOf",
      "outputs": [
        {
          "internalType": "uint256",
          "name": "",
          "type": "uint256"
        }
      ],
      "stateMutability": "view",
      "type": "function",
      "constant": true
    },
    {
      "inputs": [],
      "name": "name",
      "outputs": [
        {
          "internalType": "string",
          "name": "",
          "type": "string"
        }
      ],
      "stateMutability": "view",
      "type": "function",
      "constant": true
    },
    {
      "inputs": [
        {
          "internalType": "uint256",
          "name": "tokenId",
          "type": "uint256"
        }
      ],
      "name": "ownerOf",
      "outputs": [
        {
          "internalType": "address",
          "name": "",
          "type": "address"
        }
      ],
      "stateMutability": "view",
      "type": "function",
      "constant": true
    },
    {
      "inputs": [
        {
          "internalType": "address",
          "name": "",
          "type": "address"
        },
        {
          "internalType": "uint256",
          "name": "",
          "type": "uint256"
        }
      ],
      "name": "ownersOfNFTs",
      "outputs": [
        {
          "internalType": "uint256",
          "name": "",
          "type": "uint256"
        }
      ],
      "stateMutability": "view",
      "type": "function",
      "constant": true
    },
    {
      "inputs": [],
      "name": "symbol",
      "outputs": [
        {
          "internalType": "string",
          "name": "",
          "type": "string"
        }
      ],
      "stateMutability": "view",
      "type": "function",
      "constant": true
    },
    {
      "inputs": [],
      "name": "showNFTs",
      "outputs": [
        {
          "internalType": "uint256[]",
          "name": "",
          "type": "uint256[]"
        }
      ],
      "stateMutability": "view",
      "type": "function",
      "constant": true
    },
    {
      "inputs": [],
      "name": "isOwner",
      "outputs": [
        {
          "internalType": "bool",
          "name": "",
          "type": "bool"
        }
      ],
      "stateMutability": "view",
      "type": "function",
      "constant": true
    },
    {
      "inputs": [],
      "name": "showSaleNFTs",
      "outputs": [
        {
          "internalType": "uint256[]",
          "name": "",
          "type": "uint256[]"
        }
      ],
      "stateMutability": "view",
      "type": "function",
      "constant": true
    },
    {
      "inputs": [],
      "name": "mint",
      "outputs": [
        {
          "internalType": "uint256",
          "name": "",
          "type": "uint256"
        }
      ],
      "stateMutability": "nonpayable",
      "type": "function"
    },
    {
      "inputs": [
        {
          "internalType": "uint256",
          "name": "tokenId_",
          "type": "uint256"
        },
        {
          "internalType": "uint256",
          "name": "tokenPrice",
          "type": "uint256"
        }
      ],
      "name": "startSale",
      "outputs": [],
      "stateMutability": "nonpayable",
      "type": "function"
    },
    {
      "inputs": [
        {
          "internalType": "uint256",
          "name": "tokenId_",
          "type": "uint256"
        }
      ],
      "name": "finishSale",
      "outputs": [],
      "stateMutability": "payable",
      "type": "function",
      "payable": true
    },
    {
      "inputs": [
        {
          "internalType": "uint256",
          "name": "tokenId_",
          "type": "uint256"
        }
      ],
      "name": "cancelSale",
      "outputs": [],
      "stateMutability": "nonpayable",
      "type": "function"
    },
    {
      "inputs": [
        {
          "internalType": "address",
          "name": "to",
          "type": "address"
        },
        {
          "internalType": "uint256",
          "name": "tokenID",
          "type": "uint256"
        }
      ],
      "name": "transfer",
      "outputs": [],
      "stateMutability": "nonpayable",
      "type": "function"
    },
    {
      "inputs": [
        {
          "internalType": "uint256",
          "name": "tokenId_",
          "type": "uint256"
        }
      ],
      "name": "takeNFT",
      "outputs": [],
      "stateMutability": "payable",
      "type": "function",
      "payable": true
    },
    {
      "inputs": [
        {
          "internalType": "uint256",
          "name": "tokenIdF",
          "type": "uint256"
        },
        {
          "internalType": "uint256",
          "name": "tokenIdS",
          "type": "uint256"
        },
        {
          "internalType": "address",
          "name": "to",
          "type": "address"
        }
      ],
      "name": "sendNFTsToWinner",
      "outputs": [],
      "stateMutability": "nonpayable",
      "type": "function"
    }
  ],
  "bytecode": "0x60806040523480156200001157600080fd5b50604051620027ec380380620027ec8339818101604052810190620000379190620001ef565b8181816000908051906020019062000051929190620000cd565b5080600190805190602001906200006a929190620000cd565b506200007b620000c560201b60201c565b600260006101000a81548173ffffffffffffffffffffffffffffffffffffffff021916908373ffffffffffffffffffffffffffffffffffffffff1602179055505050505062000393565b600033905090565b828054620000db90620002ff565b90600052602060002090601f016020900481019282620000ff57600085556200014b565b82601f106200011a57805160ff19168380011785556200014b565b828001600101855582156200014b579182015b828111156200014a5782518255916020019190600101906200012d565b5b5090506200015a91906200015e565b5090565b5b80821115620001795760008160009055506001016200015f565b5090565b6000620001946200018e8462000296565b62000262565b905082815260208101848484011115620001ad57600080fd5b620001ba848285620002c9565b509392505050565b600082601f830112620001d457600080fd5b8151620001e68482602086016200017d565b91505092915050565b600080604083850312156200020357600080fd5b600083015167ffffffffffffffff8111156200021e57600080fd5b6200022c85828601620001c2565b925050602083015167ffffffffffffffff8111156200024a57600080fd5b6200025885828601620001c2565b9150509250929050565b6000604051905081810181811067ffffffffffffffff821117156200028c576200028b62000364565b5b8060405250919050565b600067ffffffffffffffff821115620002b457620002b362000364565b5b601f19601f8301169050602081019050919050565b60005b83811015620002e9578082015181840152602081019050620002cc565b83811115620002f9576000848401525b50505050565b600060028204905060018216806200031857607f821691505b602082108114156200032f576200032e62000335565b5b50919050565b7f4e487b7100000000000000000000000000000000000000000000000000000000600052602260045260246000fd5b7f4e487b7100000000000000000000000000000000000000000000000000000000600052604160045260246000fd5b61244980620003a36000396000f3fe6080604052600436106100f35760003560e01c806395d89b411161008a578063bc8e886c11610059578063bc8e886c1461031f578063bd94b0051461034a578063f4f3122e14610373578063fb2facc31461039c576100f3565b806395d89b4114610277578063a9059cbb146102a2578063b2bdfa7b146102cb578063bbd8fcd5146102f6576100f3565b806370a08231116100c657806370a08231146101a75780637d19b58d146101e45780638f32d59b14610221578063900782aa1461024c576100f3565b806306fdde03146100f85780631249c58b146101235780632061a9521461014e5780636352211e1461016a575b600080fd5b34801561010457600080fd5b5061010d6103b8565b60405161011a9190612024565b60405180910390f35b34801561012f57600080fd5b5061013861044a565b6040516101459190612186565b60405180910390f35b61016860048036038101906101639190611ac9565b610484565b005b34801561017657600080fd5b50610191600480360381019061018c9190611ac9565b6105c2565b60405161019e9190611fcc565b60405180910390f35b3480156101b357600080fd5b506101ce60048036038101906101c99190611a64565b610674565b6040516101db9190612186565b60405180910390f35b3480156101f057600080fd5b5061020b60048036038101906102069190611a8d565b61072c565b6040516102189190612186565b60405180910390f35b34801561022d57600080fd5b5061023661075d565b6040516102439190612009565b60405180910390f35b34801561025857600080fd5b506102616107bc565b60405161026e9190611fe7565b60405180910390f35b34801561028357600080fd5b5061028c610858565b6040516102999190612024565b60405180910390f35b3480156102ae57600080fd5b506102c960048036038101906102c49190611a8d565b6108ea565b005b3480156102d757600080fd5b506102e06108f8565b6040516102ed9190611fcc565b60405180910390f35b34801561030257600080fd5b5061031d60048036038101906103189190611b2e565b61091e565b005b34801561032b57600080fd5b506103346109c5565b6040516103419190611fe7565b60405180910390f35b34801561035657600080fd5b50610371600480360381019061036c9190611ac9565b610a61565b005b34801561037f57600080fd5b5061039a60048036038101906103959190611af2565b610b6a565b005b6103b660048036038101906103b19190611ac9565b610cd2565b005b6060600080546103c7906122fb565b80601f01602080910402602001604051908101604052809291908181526020018280546103f3906122fb565b80156104405780601f1061041557610100808354040283529160200191610440565b820191906000526020600020905b81548152906001019060200180831161042357829003601f168201915b5050505050905090565b600061045833600654610da5565b6006600081548092919061046b9061232d565b9190505550600160065461047f919061224c565b905090565b60086000828152602001908152602001600020546104a0610fcd565b146104e0576040517f08c379a00000000000000000000000000000000000000000000000000000000081526004016104d790612166565b60405180910390fd5b6007600082815260200190815260200160002060009054906101000a900473ffffffffffffffffffffffffffffffffffffffff1673ffffffffffffffffffffffffffffffffffffffff166108fc610535610fcd565b9081150290604051600060405180830381858888f19350505050158015610560573d6000803e3d6000fd5b5060086000828152602001908152602001600020600090556007600082815260200190815260200160002060006101000a81549073ffffffffffffffffffffffffffffffffffffffff02191690556105bf6105b9610fd5565b82610fdd565b50565b6000806003600084815260200190815260200160002060009054906101000a900473ffffffffffffffffffffffffffffffffffffffff169050600073ffffffffffffffffffffffffffffffffffffffff168173ffffffffffffffffffffffffffffffffffffffff16141561066b576040517f08c379a000000000000000000000000000000000000000000000000000000000815260040161066290612146565b60405180910390fd5b80915050919050565b60008073ffffffffffffffffffffffffffffffffffffffff168273ffffffffffffffffffffffffffffffffffffffff1614156106e5576040517f08c379a00000000000000000000000000000000000000000000000000000000081526004016106dc906120e6565b60405180910390fd5b600460008373ffffffffffffffffffffffffffffffffffffffff1673ffffffffffffffffffffffffffffffffffffffff168152602001908152602001600020549050919050565b6005602052816000526040600020818154811061074857600080fd5b90600052602060002001600091509150505481565b6000600260009054906101000a900473ffffffffffffffffffffffffffffffffffffffff1673ffffffffffffffffffffffffffffffffffffffff166107a0610fd5565b73ffffffffffffffffffffffffffffffffffffffff1614905090565b6060600560006107ca610fd5565b73ffffffffffffffffffffffffffffffffffffffff1673ffffffffffffffffffffffffffffffffffffffff16815260200190815260200160002080548060200260200160405190810160405280929190818152602001828054801561084e57602002820191906000526020600020905b81548152602001906001019080831161083a575b5050505050905090565b606060018054610867906122fb565b80601f0160208091040260200160405190810160405280929190818152602001828054610893906122fb565b80156108e05780601f106108b5576101008083540402835291602001916108e0565b820191906000526020600020905b8154815290600101906020018083116108c357829003601f168201915b5050505050905090565b6108f482826110f0565b5050565b600260009054906101000a900473ffffffffffffffffffffffffffffffffffffffff1681565b610926610fd5565b73ffffffffffffffffffffffffffffffffffffffff16600260009054906101000a900473ffffffffffffffffffffffffffffffffffffffff1673ffffffffffffffffffffffffffffffffffffffff16146109b5576040517f08c379a00000000000000000000000000000000000000000000000000000000081526004016109ac90612046565b60405180910390fd5b6109c08383836113b9565b505050565b6060600960006109d3610fd5565b73ffffffffffffffffffffffffffffffffffffffff1673ffffffffffffffffffffffffffffffffffffffff168152602001908152602001600020805480602002602001604051908101604052809291908181526020018280548015610a5757602002820191906000526020600020905b815481526020019060010190808311610a43575b5050505050905090565b610a69610fd5565b73ffffffffffffffffffffffffffffffffffffffff166007600083815260200190815260200160002060009054906101000a900473ffffffffffffffffffffffffffffffffffffffff1673ffffffffffffffffffffffffffffffffffffffff1614610b09576040517f08c379a0000000000000000000000000000000000000000000000000000000008152600401610b00906120a6565b60405180910390fd5b60086000828152602001908152602001600020600090556007600082815260200190815260200160002060006101000a81549073ffffffffffffffffffffffffffffffffffffffff0219169055610b67610b61610fd5565b82610fdd565b50565b610b72610fd5565b73ffffffffffffffffffffffffffffffffffffffff16610b91836105c2565b73ffffffffffffffffffffffffffffffffffffffff1614610be7576040517f08c379a0000000000000000000000000000000000000000000000000000000008152600401610bde906120a6565b60405180910390fd5b60096000610bf3610fd5565b73ffffffffffffffffffffffffffffffffffffffff1673ffffffffffffffffffffffffffffffffffffffff168152602001908152602001600020829080600181540180825580915050600190039060005260206000200160009091909190915055610c5c610fd5565b6007600084815260200190815260200160002060006101000a81548173ffffffffffffffffffffffffffffffffffffffff021916908373ffffffffffffffffffffffffffffffffffffffff160217905550806008600084815260200190815260200160002081905550610cce8261166e565b5050565b610cda610fd5565b73ffffffffffffffffffffffffffffffffffffffff16610cf9826105c2565b73ffffffffffffffffffffffffffffffffffffffff1614610d4f576040517f08c379a0000000000000000000000000000000000000000000000000000000008152600401610d46906120a6565b60405180910390fd5b67016345785d8a00003414610d99576040517f08c379a0000000000000000000000000000000000000000000000000000000008152600401610d9090612126565b60405180910390fd5b610da28161166e565b50565b600073ffffffffffffffffffffffffffffffffffffffff168273ffffffffffffffffffffffffffffffffffffffff161415610e15576040517f08c379a0000000000000000000000000000000000000000000000000000000008152600401610e0c90612106565b60405180910390fd5b610e1e81611759565b15610e5e576040517f08c379a0000000000000000000000000000000000000000000000000000000008152600401610e5590612086565b60405180910390fd5b6001600460008473ffffffffffffffffffffffffffffffffffffffff1673ffffffffffffffffffffffffffffffffffffffff1681526020019081526020016000206000828254610eae91906121f6565b92505081905550816003600083815260200190815260200160002060006101000a81548173ffffffffffffffffffffffffffffffffffffffff021916908373ffffffffffffffffffffffffffffffffffffffff160217905550600560008373ffffffffffffffffffffffffffffffffffffffff1673ffffffffffffffffffffffffffffffffffffffff168152602001908152602001600020819080600181540180825580915050600190039060005260206000200160009091909190915055808273ffffffffffffffffffffffffffffffffffffffff16600073ffffffffffffffffffffffffffffffffffffffff167fddf252ad1be2c89b69c2b068fc378daa952ba7f163c4a11628f55a4df523b3ef60405160405180910390a45050565b600034905090565b600033905090565b6001600460008473ffffffffffffffffffffffffffffffffffffffff1673ffffffffffffffffffffffffffffffffffffffff168152602001908152602001600020600082825461102d91906121f6565b92505081905550816003600083815260200190815260200160002060006101000a81548173ffffffffffffffffffffffffffffffffffffffff021916908373ffffffffffffffffffffffffffffffffffffffff160217905550600560008373ffffffffffffffffffffffffffffffffffffffff1673ffffffffffffffffffffffffffffffffffffffff1681526020019081526020016000208190806001815401808255809150506001900390600052602060002001600090919091909150555050565b6110f8610fd5565b73ffffffffffffffffffffffffffffffffffffffff16611117826105c2565b73ffffffffffffffffffffffffffffffffffffffff161461116d576040517f08c379a000000000000000000000000000000000000000000000000000000000815260040161116490612066565b60405180910390fd5b600073ffffffffffffffffffffffffffffffffffffffff168273ffffffffffffffffffffffffffffffffffffffff1614156111dd576040517f08c379a00000000000000000000000000000000000000000000000000000000081526004016111d4906120c6565b60405180910390fd5b6001600460006111eb610fd5565b73ffffffffffffffffffffffffffffffffffffffff1673ffffffffffffffffffffffffffffffffffffffff1681526020019081526020016000206000828254611234919061224c565b92505081905550611244816117c5565b6001600460008473ffffffffffffffffffffffffffffffffffffffff1673ffffffffffffffffffffffffffffffffffffffff168152602001908152602001600020600082825461129491906121f6565b92505081905550816003600083815260200190815260200160002060006101000a81548173ffffffffffffffffffffffffffffffffffffffff021916908373ffffffffffffffffffffffffffffffffffffffff160217905550600560008373ffffffffffffffffffffffffffffffffffffffff1673ffffffffffffffffffffffffffffffffffffffff168152602001908152602001600020819080600181540180825580915050600190039060005260206000200160009091909190915055808273ffffffffffffffffffffffffffffffffffffffff16611373610fd5565b73ffffffffffffffffffffffffffffffffffffffff167fddf252ad1be2c89b69c2b068fc378daa952ba7f163c4a11628f55a4df523b3ef60405160405180910390a45050565b6002600460008373ffffffffffffffffffffffffffffffffffffffff1673ffffffffffffffffffffffffffffffffffffffff168152602001908152602001600020600082825461140991906121f6565b92505081905550806003600085815260200190815260200160002060006101000a81548173ffffffffffffffffffffffffffffffffffffffff021916908373ffffffffffffffffffffffffffffffffffffffff160217905550806003600084815260200190815260200160002060006101000a81548173ffffffffffffffffffffffffffffffffffffffff021916908373ffffffffffffffffffffffffffffffffffffffff160217905550600560008273ffffffffffffffffffffffffffffffffffffffff1673ffffffffffffffffffffffffffffffffffffffff168152602001908152602001600020839080600181540180825580915050600190039060005260206000200160009091909190915055600560008273ffffffffffffffffffffffffffffffffffffffff1673ffffffffffffffffffffffffffffffffffffffff1681526020019081526020016000208290806001815401808255809150506001900390600052602060002001600090919091909150558073ffffffffffffffffffffffffffffffffffffffff166108fc6702a303fe4b5300009081150290604051600060405180830381858888f193505050501580156115ce573d6000803e3d6000fd5b506115d7610fd5565b73ffffffffffffffffffffffffffffffffffffffff166108fc662386f26fc100009081150290604051600060405180830381858888f19350505050158015611623573d6000803e3d6000fd5b508073ffffffffffffffffffffffffffffffffffffffff1682847f0ba0cfb16c432deb0d524dfd1c8030947fda100c539ee468567a66dc9f358a4760405160405180910390a4505050565b6003600082815260200190815260200160002060006101000a81549073ffffffffffffffffffffffffffffffffffffffff02191690556001600460006116b2610fd5565b73ffffffffffffffffffffffffffffffffffffffff1673ffffffffffffffffffffffffffffffffffffffff16815260200190815260200160002060008282546116fb919061224c565b9250508190555061170b816117c5565b80611714610fd5565b73ffffffffffffffffffffffffffffffffffffffff167f6b7cd69b67e1df4ae90a622a317601f488590b87285c2945fdda398d2942577760405160405180910390a350565b60008073ffffffffffffffffffffffffffffffffffffffff166003600084815260200190815260200160002060009054906101000a900473ffffffffffffffffffffffffffffffffffffffff1673ffffffffffffffffffffffffffffffffffffffff1614159050919050565b6000600560006117d3610fd5565b73ffffffffffffffffffffffffffffffffffffffff1673ffffffffffffffffffffffffffffffffffffffff16815260200190815260200160002080548060200260200160405190810160405280929190818152602001828054801561185757602002820191906000526020600020905b815481526020019060010190808311611843575b505050505090506000805b60018351611870919061224c565b81101561196857838382815181106118b1577f4e487b7100000000000000000000000000000000000000000000000000000000600052603260045260246000fd5b602002602001015114156118c457600191505b8282826118d191906121f6565b81518110611908577f4e487b7100000000000000000000000000000000000000000000000000000000600052603260045260246000fd5b6020026020010151838281518110611949577f4e487b7100000000000000000000000000000000000000000000000000000000600052603260045260246000fd5b60200260200101818152505080806119609061232d565b915050611862565b5060018251038252816005600061197d610fd5565b73ffffffffffffffffffffffffffffffffffffffff1673ffffffffffffffffffffffffffffffffffffffff16815260200190815260200160002090805190602001906119ca9291906119d0565b50505050565b828054828255906000526020600020908101928215611a0c579160200282015b82811115611a0b5782518255916020019190600101906119f0565b5b509050611a199190611a1d565b5090565b5b80821115611a36576000816000905550600101611a1e565b5090565b600081359050611a49816123e5565b92915050565b600081359050611a5e816123fc565b92915050565b600060208284031215611a7657600080fd5b6000611a8484828501611a3a565b91505092915050565b60008060408385031215611aa057600080fd5b6000611aae85828601611a3a565b9250506020611abf85828601611a4f565b9150509250929050565b600060208284031215611adb57600080fd5b6000611ae984828501611a4f565b91505092915050565b60008060408385031215611b0557600080fd5b6000611b1385828601611a4f565b9250506020611b2485828601611a4f565b9150509250929050565b600080600060608486031215611b4357600080fd5b6000611b5186828701611a4f565b9350506020611b6286828701611a4f565b9250506040611b7386828701611a3a565b9150509250925092565b6000611b898383611fae565b60208301905092915050565b611b9e81612280565b82525050565b6000611baf826121b1565b611bb981856121d4565b9350611bc4836121a1565b8060005b83811015611bf5578151611bdc8882611b7d565b9750611be7836121c7565b925050600181019050611bc8565b5085935050505092915050565b611c0b81612292565b82525050565b6000611c1c826121bc565b611c2681856121e5565b9350611c368185602086016122c8565b611c3f816123d4565b840191505092915050565b6000611c57602d836121e5565b91507f4552433732313a20596f7520617265206e6f7420746865206f776e6572206f6660008301527f2074686520636f6e7472616374000000000000000000000000000000000000006020830152604082019050919050565b6000611cbd6025836121e5565b91507f4552433732313a207472616e736665722066726f6d20696e636f72726563742060008301527f6f776e65720000000000000000000000000000000000000000000000000000006020830152604082019050919050565b6000611d23601c836121e5565b91507f4552433732313a20746f6b656e20616c7265616479206d696e746564000000006000830152602082019050919050565b6000611d63602a836121e5565b91507f4552433732313a20596f7520617265206e6f7420746865206f776e6572206f6660008301527f2074686520746f6b656e000000000000000000000000000000000000000000006020830152604082019050919050565b6000611dc96024836121e5565b91507f4552433732313a207472616e7366657220746f20746865207a65726f2061646460008301527f72657373000000000000000000000000000000000000000000000000000000006020830152604082019050919050565b6000611e2f6029836121e5565b91507f4552433732313a2061646472657373207a65726f206973206e6f74206120766160008301527f6c6964206f776e657200000000000000000000000000000000000000000000006020830152604082019050919050565b6000611e956020836121e5565b91507f4552433732313a206d696e7420746f20746865207a65726f20616464726573736000830152602082019050919050565b6000611ed5602d836121e5565b91507f596f75206d75737420706179203130303030303030303030303030303030302060008301527f77656920746f20617474656e64000000000000000000000000000000000000006020830152604082019050919050565b6000611f3b6018836121e5565b91507f4552433732313a20696e76616c696420746f6b656e20494400000000000000006000830152602082019050919050565b6000611f7b600f836121e5565b91507f416d6f756e742069732077726f6e6700000000000000000000000000000000006000830152602082019050919050565b611fb7816122be565b82525050565b611fc6816122be565b82525050565b6000602082019050611fe16000830184611b95565b92915050565b600060208201905081810360008301526120018184611ba4565b905092915050565b600060208201905061201e6000830184611c02565b92915050565b6000602082019050818103600083015261203e8184611c11565b905092915050565b6000602082019050818103600083015261205f81611c4a565b9050919050565b6000602082019050818103600083015261207f81611cb0565b9050919050565b6000602082019050818103600083015261209f81611d16565b9050919050565b600060208201905081810360008301526120bf81611d56565b9050919050565b600060208201905081810360008301526120df81611dbc565b9050919050565b600060208201905081810360008301526120ff81611e22565b9050919050565b6000602082019050818103600083015261211f81611e88565b9050919050565b6000602082019050818103600083015261213f81611ec8565b9050919050565b6000602082019050818103600083015261215f81611f2e565b9050919050565b6000602082019050818103600083015261217f81611f6e565b9050919050565b600060208201905061219b6000830184611fbd565b92915050565b6000819050602082019050919050565b600081519050919050565b600081519050919050565b6000602082019050919050565b600082825260208201905092915050565b600082825260208201905092915050565b6000612201826122be565b915061220c836122be565b9250827fffffffffffffffffffffffffffffffffffffffffffffffffffffffffffffffff0382111561224157612240612376565b5b828201905092915050565b6000612257826122be565b9150612262836122be565b92508282101561227557612274612376565b5b828203905092915050565b600061228b8261229e565b9050919050565b60008115159050919050565b600073ffffffffffffffffffffffffffffffffffffffff82169050919050565b6000819050919050565b60005b838110156122e65780820151818401526020810190506122cb565b838111156122f5576000848401525b50505050565b6000600282049050600182168061231357607f821691505b60208210811415612327576123266123a5565b5b50919050565b6000612338826122be565b91507fffffffffffffffffffffffffffffffffffffffffffffffffffffffffffffffff82141561236b5761236a612376565b5b600182019050919050565b7f4e487b7100000000000000000000000000000000000000000000000000000000600052601160045260246000fd5b7f4e487b7100000000000000000000000000000000000000000000000000000000600052602260045260246000fd5b6000601f19601f8301169050919050565b6123ee81612280565b81146123f957600080fd5b50565b612405816122be565b811461241057600080fd5b5056fea26469706673582212203fd4e65d64626d5dc6793fcf0e6a04e0798846e43db825c9fc983ea7838b2e8064736f6c63430008000033",
  "immutableReferences": {},
  "source": "// SPDX-License-Identifier: non\npragma solidity ^0.8.0;\n\nimport \"./MyERC721.sol\";\n\ncontract MyToken is MyERC721 {\n    \n    // Unique token ids.\n    uint256 private tokenId;\n\n    // Token exOwners to authorize cancel from sale.\n    mapping(uint256 => address) tokensInSale;\n\n    // Token prices on sale.\n    mapping(uint256 => uint256) tokensPrice;\n\n    // User ownership of NFTs on sale, used to authorizations on app.\n    mapping(address => uint256[]) private ownersOfNFTsOnSale;\n\n\n    constructor(string memory name, string memory symbol) MyERC721(name, symbol) {  \n\n    }\n\n    // Returns ownerships of NFTs with view (gas free) function.\n    function showNFTs() public view returns(uint256[] memory){\n         return ownersOfNFTs[_msgSender()];\n    }\n\n    // Returns ownership of contract with wiew (gas free) function for authorization on app.\n    function isOwner() public view returns(bool ){\n        return _msgSender() == _owner;\n    }\n\n    // Returns ownerships of NFTs on sale with view (gas free) function.\n    function showSaleNFTs() public view returns(uint256[] memory){\n         return ownersOfNFTsOnSale[_msgSender()];\n    }\n\n    // Minting NFT.\n    function mint() public returns (uint256){\n        _mint(msg.sender, tokenId);\n        tokenId++;\n        return tokenId-1;\n    }\n\n    // Putting NFT to sale.\n    function startSale(uint256 tokenId_, uint256 tokenPrice) public {\n        require(MyERC721.ownerOf(tokenId_) == _msgSender(), \"ERC721: You are not the owner of the token\");\n        \n        ownersOfNFTsOnSale[_msgSender()].push(tokenId_);\n        tokensInSale[tokenId_] = _msgSender();\n        tokensPrice[tokenId_] = tokenPrice;\n\n        _takeNFT(tokenId_);\n    }    \n\n    // Buying NFT.\n    function finishSale(uint256 tokenId_) public payable{\n        require(_msgValue() == tokensPrice[tokenId_], \"Amount is wrong\");\n\n        payable(tokensInSale[tokenId_]).transfer(_msgValue());\n        delete tokensPrice[tokenId_];\n        delete tokensInSale[tokenId_];\n\n        _sendTokenTo(_msgSender(), tokenId_);\n    }\n\n    // Canceling from sale.\n    function cancelSale(uint256 tokenId_) public{\n        require(tokensInSale[tokenId_] == _msgSender(), \"ERC721: You are not the owner of the token\");\n        \n        delete tokensPrice[tokenId_];\n        delete tokensInSale[tokenId_];\n\n        _sendTokenTo(_msgSender(), tokenId_);\n    }\n\n    // Transfering NFT.\n    function transfer(address to, uint256 tokenID) public {\n\n        _transfer(to, tokenID);\n    }\n\n    // Taking NFT to NFT fight\n    function takeNFT(uint256 tokenId_) external payable { \n        require(MyERC721.ownerOf(tokenId_) == _msgSender(), \"ERC721: You are not the owner of the token\");\n        require(msg.value == 100000000000000000, \"You must pay 100000000000000000 wei to attend\");\n        \n        _takeNFT(tokenId_);\n    }\n \n    // Sending NFT fight rewards.\n    function sendNFTsToWinner(uint256 tokenIdF, uint256 tokenIdS, address to) public {\n        require(_owner == _msgSender(), \"ERC721: You are not the owner of the contract\");   \n        \n        _sendNFTsToWinner(tokenIdF, tokenIdS, to);\n    }\n}",
  "sourcePath": "/home/hp/truffleProject/contracts/MyToken.sol",
  "compiler": {
    "name": "solc",
    "version": "0.8.0+commit.c7dfd78e.Emscripten.clang"
  },
  "schemaVersion": "3.4.11",
  "updatedAt": "2023-01-27T21:38:19.606Z",
  "networkType": "ethereum",
  "devdoc": {
    "kind": "dev",
    "methods": {},
    "version": 1
  },
  "userdoc": {
    "kind": "user",
    "methods": {},
    "version": 1
  }
}