{
  "contractName": "ShilaCoin",
  "abi": [
    {
      "inputs": [],
      "stateMutability": "nonpayable",
      "type": "constructor"
    },
    {
      "anonymous": false,
      "inputs": [
        {
          "indexed": true,
          "internalType": "address",
          "name": "_from",
          "type": "address"
        },
        {
          "indexed": true,
          "internalType": "address",
          "name": "_to",
          "type": "address"
        },
        {
          "indexed": false,
          "internalType": "uint256",
          "name": "_value",
          "type": "uint256"
        }
      ],
      "name": "Transfer",
      "type": "event"
    },
    {
      "inputs": [
        {
          "internalType": "address",
          "name": "receiver",
          "type": "address"
        },
        {
          "internalType": "uint256",
          "name": "amount",
          "type": "uint256"
        }
      ],
      "name": "sendCoin",
      "outputs": [
        {
          "internalType": "bool",
          "name": "sufficient",
          "type": "bool"
        }
      ],
      "stateMutability": "nonpayable",
      "type": "function"
    },
    {
      "inputs": [],
      "name": "getBalance",
      "outputs": [
        {
          "internalType": "uint256",
          "name": "",
          "type": "uint256"
        }
      ],
      "stateMutability": "view",
      "type": "function",
      "constant": true
    },
    {
      "inputs": [
        {
          "internalType": "address",
          "name": "receiver",
          "type": "address"
        },
        {
          "internalType": "uint256",
          "name": "amount",
          "type": "uint256"
        }
      ],
      "name": "sendPoint",
      "outputs": [],
      "stateMutability": "nonpayable",
      "type": "function"
    }
  ],
  "bytecode": "0x608060405234801561001057600080fd5b5033600160006101000a81548173ffffffffffffffffffffffffffffffffffffffff021916908373ffffffffffffffffffffffffffffffffffffffff160217905550620f42406000803373ffffffffffffffffffffffffffffffffffffffff1673ffffffffffffffffffffffffffffffffffffffff1681526020019081526020016000208190555061062f806100a76000396000f3fe608060405234801561001057600080fd5b50600436106100415760003560e01c806312065fe0146100465780631fc3b8b11461006457806390b98a1114610080575b600080fd5b61004e6100b0565b60405161005b919061049e565b60405180910390f35b61007e600480360381019061007991906103c9565b6100f6565b005b61009a600480360381019061009591906103c9565b610234565b6040516100a79190610463565b60405180910390f35b60008060003373ffffffffffffffffffffffffffffffffffffffff1673ffffffffffffffffffffffffffffffffffffffff16815260200190815260200160002054905090565b600160009054906101000a900473ffffffffffffffffffffffffffffffffffffffff1673ffffffffffffffffffffffffffffffffffffffff163373ffffffffffffffffffffffffffffffffffffffff1614610186576040517f08c379a000000000000000000000000000000000000000000000000000000000815260040161017d9061047e565b60405180910390fd5b806000803373ffffffffffffffffffffffffffffffffffffffff1673ffffffffffffffffffffffffffffffffffffffff16815260200190815260200160002060008282546101d49190610520565b92505081905550806000808473ffffffffffffffffffffffffffffffffffffffff1673ffffffffffffffffffffffffffffffffffffffff168152602001908152602001600020600082825461022991906104ca565b925050819055505050565b6000816000803373ffffffffffffffffffffffffffffffffffffffff1673ffffffffffffffffffffffffffffffffffffffff1681526020019081526020016000205410156102855760009050610399565b816000803373ffffffffffffffffffffffffffffffffffffffff1673ffffffffffffffffffffffffffffffffffffffff16815260200190815260200160002060008282546102d39190610520565b92505081905550816000808573ffffffffffffffffffffffffffffffffffffffff1673ffffffffffffffffffffffffffffffffffffffff168152602001908152602001600020600082825461032891906104ca565b925050819055508273ffffffffffffffffffffffffffffffffffffffff163373ffffffffffffffffffffffffffffffffffffffff167fddf252ad1be2c89b69c2b068fc378daa952ba7f163c4a11628f55a4df523b3ef8460405161038c919061049e565b60405180910390a3600190505b92915050565b6000813590506103ae816105cb565b92915050565b6000813590506103c3816105e2565b92915050565b600080604083850312156103dc57600080fd5b60006103ea8582860161039f565b92505060206103fb858286016103b4565b9150509250929050565b61040e81610566565b82525050565b6000610421601d836104b9565b91507f596f7520646f6e277420686176652074686520617574686f726974792e0000006000830152602082019050919050565b61045d81610592565b82525050565b60006020820190506104786000830184610405565b92915050565b6000602082019050818103600083015261049781610414565b9050919050565b60006020820190506104b36000830184610454565b92915050565b600082825260208201905092915050565b60006104d582610592565b91506104e083610592565b9250827fffffffffffffffffffffffffffffffffffffffffffffffffffffffffffffffff038211156105155761051461059c565b5b828201905092915050565b600061052b82610592565b915061053683610592565b9250828210156105495761054861059c565b5b828203905092915050565b600061055f82610572565b9050919050565b60008115159050919050565b600073ffffffffffffffffffffffffffffffffffffffff82169050919050565b6000819050919050565b7f4e487b7100000000000000000000000000000000000000000000000000000000600052601160045260246000fd5b6105d481610554565b81146105df57600080fd5b50565b6105eb81610592565b81146105f657600080fd5b5056fea264697066735822122060919a17a005d97cd008d20c841e0f45b71d8eb0682c5f38133ef3565e3e626c64736f6c63430008000033",
  "immutableReferences": {},
  "source": "// SPDX-License-Identifier: non\npragma solidity ^0.8.0;\n\n\ncontract ShilaCoin {\n    \n    mapping (address => uint) balances;\n    address owner;\n\n    event Transfer(address indexed _from, address indexed _to, uint256 _value);\n\n    constructor() {\n        owner = msg.sender;\n        balances[msg.sender] = 1000000;\n    }\n\n    function sendCoin(address receiver, uint amount) public returns(bool sufficient) {\n        if (balances[msg.sender] < amount) return false;\n        balances[msg.sender] -= amount;\n        balances[receiver] += amount;\n        emit Transfer(msg.sender, receiver, amount);\n        return true;\n    }\n\n\n    function getBalance() public view returns(uint) {\n        return balances[msg.sender];\n    }\n\n\n    function sendPoint(address receiver, uint amount) public {\n        require(msg.sender == owner, \"You don't have the authority.\");\n        balances[msg.sender] -= amount;\n        balances[receiver] += amount;\n    }\n}\n",
  "sourcePath": "/home/hp/truffleProject/contracts/ShilaCoin.sol",
  "compiler": {
    "name": "solc",
    "version": "0.8.0+commit.c7dfd78e.Emscripten.clang"
  },
  "schemaVersion": "3.4.11",
  "updatedAt": "2023-01-27T21:38:19.602Z",
  "networkType": "ethereum",
  "devdoc": {
    "kind": "dev",
    "methods": {},
    "version": 1
  },
  "userdoc": {
    "kind": "user",
    "methods": {},
    "version": 1
  }
}